:020000040800F2
:10000000D8950120C1020008353F00088D3900084D
:10001000153F00083D1A0008F342000800000000E8
:10002000000000000000000000000000393F000850
:10003000B320000800000000373F0008F93F000827
:10004000DB020008DB020008DB020008DB0200081C
:10005000DB020008DB020008DB020008DB0200080C
:10006000DB020008DB020008DB020008DB020008FC
:10007000DB020008DB020008DB020008DB020008EC
:10008000DB020008DB020008311A0008DB0200086E
:10009000DB020008DB020008DB020008DB020008CC
:1000A000DB020008DB020008DB020008DB020008BC
:1000B000DB020008DB020008DB020008DB020008AC
:1000C000DB020008DB020008DB020008DB0200089C
:1000D000DB020008DB020008DB020008DB0200088C
:1000E000DB020008DB020008DB020008DB0200087C
:1000F000DB020008DB020008DB020008DB0200086C
:10010000DB020008DB020008DB020008DB0200085B
:10011000DB020008DB020008DB020008DB0200084B
:1001200051200008DB020008DB020008DB020008A7
:10013000DB020008DB020008DB020008DB0200082B
:10014000DB020008DB020008DB020008DB0200081B
:10015000DB020008DB020008DB020008DB0200080B
:10016000DB020008DB020008DB020008DB020008FB
:10017000DB020008DB020008DB02000800000000D0
:10018000DB020008DB020008DB020008DB020008DB
:10019000DB020008DB020008DB020008DB020008CB
:1001A000DB020008DB020008DB02000800F002F8B6
:1001B00000F077F80AA090E8000C82448344AAF18A
:1001C0000107DA4501D100F06CF8AFF2090EBAE888
:1001D0000F0013F0010F18BFFB1A43F0010318477B
:1001E00060850400808504000A444FF0000C10F87C
:1001F000013B13F0070408BF10F8014B1D1108BFA5
:1002000010F8015B641E05D010F8016B641E01F844
:10021000016BF9D113F0080F1EBF10F8014BAD1C94
:100220000C1B09D16D1E58BF01F801CBFAD505E0B2
:1002300014F8016B01F8016B6D1EF9D59142D6D30C
:10024000704700000023002400250026103A28BF34
:1002500078C1FBD8520728BF30C148BF0B60704738
:10026000662909F0CE86642900F06281732900F0C6
:10027000E885002070471FB509F0B1FE9DE8030036
:1002800000F008FB00F0F8FD04000020002109F058
:10029000C7F8E06000F0FAFF1FBD10B501F05FF88D
:1002A00010BD01F0CAF81146FFF7E5FF05F05CFA52
:1002B00001F022FA03B4FFF7F0FF03BC01F09AFA51
:1002C0000948804709480047FEE7FEE7FEE7FEE7EA
:1002D000FEE7FEE7FEE7FEE7FEE7FEE70448054926
:1002E000054A064B7047000095400008AD01000824
:1002F000D8850120D8950120D88D0120D88D0120E6
:1003000070B5064600F0AAFA056806F10B0020F069
:100310000704B4429CBF002070BD2B466A68BAB186
:100320001068A04210D304F1080188423CBF506815
:10033000586007D35168101941601168091B0160AA
:1003400058601460101D70BD13465268002AE7D132
:100350002146284600F08AFA0028DED170BD70B52B
:100360000446051F00F07AFA0068002C14BF4468A8
:1003700070BD002C18BFAC423CBF20466468F8D367
:1003800001680A18AA4218BF456003D12A680546C9
:100390001144016028684119A1421CBF6C6070BD06
:1003A0006168696021680844286070BD53EA020CE6
:1003B00000F069802DE9F04B4FF00006002B1FBFC5
:1003C000B3FA83F503FA05F424FA05F65E4012BF8A
:1003D0001643B2FA82F502FA05F4C5F120051EBFF4
:1003E00022FA05FC44EA0C04203556EA044C4FEA94
:1003F000144418BF641C4FF000084FF000099042ED
:1004000071EB030C39D3002919BFB1FA81F701FA56
:1004100007F6B0FA80F700FA07F6C7F120071EBF0B
:1004200020FA07FC46EA0C062037B6FBF4FCA7EBE3
:100430000507103F07F01F0BCBF120062CFA06F63C
:100440000CFA0BFB44BFB3460026202FA4BF5E4628
:100450004FF0000B5BEA060C08BF4FF0010B19EBE5
:100460000B0948EB0608ABFB027C06FB02CC0BFB3E
:1004700003CCC01B71EB0C01C1E70B4602464146A1
:100480004846BDE8F08B13B5084318BF4FF0FF3066
:100490000146AFF30080BDE81C4070470FB404492B
:1004A00010B503AA029800F0D1FC10BC5DF814FB53
:1004B000B40C00200FB41CB5074B06AA7B44694658
:1004C0000090059800F093FC0020694600F0A2FC23
:1004D0001CBC5DF814FB00005509000070B50C460B
:1004E0000546012A05D02878800600D5EA69002350
:1004F00002E0012305E05B1C934202D2E05C00288D
:10050000F9D1A869E618C01AA861286A18442862B7
:100510002846AFF3008004E0D5E9012114F8010B6F
:100520009047B442F8D32846AFF3008070BD000076
:100530002DE9F0410646002410687529314616A5BC
:1005400010D0AFF30080002802DA404213A507E084
:1005500031688A0701D512A502E0490704D511A523
:10056000012401E0AFF3008000210A2206F12407F4
:1005700009E0B0FBF2FCB0FBF2F302FB1C003030F0
:1005800078541846491C0028F3D123462A463046A1
:10059000BDE8F04100F0BFB9000000002D000000F0
:1005A0002B000000200000002DE9F05F8946044682
:1005B0004FF0000ADFF824B1FB44C0F820A0204629
:1005C000E168884700287DD0252806D0D4E901219C
:1005D0009047206A401C2062F1E700255F462046D4
:1005E000E16888472028064607DB312E05D2B81976
:1005F00010F8200C08B10543F1E7A80701D525F054
:100600000405C4F81CA00027C4F818A02A2E09D09D
:10061000304607F0A5FA38B304EB8708303EC8F837
:10062000186019E059F8041B204604EB8702916119
:10063000E1688847012F064618D1E069002820DAD2
:1006400025F020051DE0D8F8180000EB800006EB2F
:1006500040003038C8F818002046E1688847064650
:1006600007F07EFA0028EED1012F0AD02E2E08D1F5
:100670002046E16888477F1C0646022F45F020058A
:10068000C4DBA069002803DA404245F00105A061FF
:10069000E80701D025F01005A6B1A6F14100192800
:1006A00002D8203645F400654A463146204625608A
:1006B0004D46FFF7D5FD60B1012807D0ED1D25F0AF
:1006C000070000E007E000F1080978E705F10409F8
:1006D00075E730467AE7206ABDE8F09FB89A0000D7
:1006E00010B5044603E008F011FE401C09D014F8D0
:1006F000010B05490028F6D1BDE810400A2008F09A
:1007000005BE4FF0FF3010BDB40C002040EA0103DD
:1007100010B59B070FD1042A0DD310C808C9121FAA
:100720009C42F8D020BA19BA884201D9012010BDE4
:100730004FF0FF3010BD1AB1D30703D0521C07E0B1
:10074000002010BD10F8013B11F8014B1B1B07D115
:1007500010F8013B11F8014B1B1B01D1921EF1D186
:10076000184610BD10B5431C02E010F8011B71B112
:100770008107FAD14FF0013202C88C1A8C4314EA77
:10078000C211F9D0C01A0A0603D0C01E10BDC01A8B
:1007900010BD0A0401D0801E10BD0902FCD0401E0D
:1007A00010BD10B5203AC0F00B80B1E81850A0E899
:1007B0001850B1E81850A0E81850203ABFF4F5AF2F
:1007C0005FEA027C24BFB1E81850A0E8185044BF8B
:1007D00018C918C0BDE810405FEA827C24BF51F8F8
:1007E000043B40F8043B08BF7047D20728BF31F8EC
:1007F000023B48BF11F8012B28BF20F8023B48BF3D
:1008000000F8012B70474FF0000200B513469446E4
:100810009646203922BFA0E80C50A0E80C50B1F158
:100820002001BFF4F7AF090728BFA0E80C5048BF6C
:100830000CC05DF804EB890028BF40F8042B08BF0A
:10084000704748BF20F8022B11F0804F18BF00F806
:10085000012B704770477047704700000048704791
:10086000640D0020704770477047704738B50446E4
:100870000A4600206946AFF30080002808BF38BD53
:1008800002460099204600F0FFFA012038BD012001
:1008900000F098BDF8B5AFF30080054600200C4687
:1008A000102000BF0646A819A0420DD9324669465D
:1008B0000020AFF30080070008BF00F083FD009820
:1008C000A04218BF0546C419FFF7C8FF05600746D8
:1008D000F01D20F007004619284600F00AF8B4423F
:1008E00008BFF8BDA21B31463868BDE8F84000F0EB
:1008F000CBBA00210160C0E9011070471020704799
:1009000010B500F0BDFA006810BD10B5044600F047
:10091000B7FA046010BD2DE9F0470D46994692469E
:10092000044600F124080168880604D5E06921F036
:100930001001216000E00120A84201DD471B00E01A
:100940000027A1697A1902EB0900081AA061207832
:10095000C00602D42046AFF30080002608E0D4E9A8
:1009600001211AF806009047206A401C761C20627C
:100970004E45F4DB2078C0060AD52046AFF3008050
:1009800006E0D4E9012130209047206A401C206213
:10099000381EA7F10107F4DC07E0D4E9012118F8BB
:1009A00005009047206A401C2062281EA5F1010521
:1009B000F3DC2046AFF300802078000602D5022049
:1009C000BDE8F0870120FBE72DE9FF4F0C461E46EE
:1009D0004FF0FF378BB0D2E90001DDF860800A905C
:1009E0008A46C1F30A5505B93D46002108464FF035
:1009F0000000BAF1000F00F4400005DA00EB8000BF
:100A00004FF4400101EA50004FEA9059B9F1010F4B
:100A100000DDB9460A9850EA4A000ED044F610505C
:100A2000A5F2FF3545432F14B8F1000F1ED07542D3
:100A3000291E1EDDC9F100021CE0B8F1010F4FF0C4
:100A4000000001D0302103E0F24305E02154401CB6
:100A5000B042FBDB30460022002121540B99C1F843
:100A60000880C1E900200FB0BDE8F08FBD1B6D1CF0
:100A7000DEE74A4600DA694206A800F0A5FA06ABAE
:100A800093E8070003AB83E8070050460A9905F096
:100A900000FA8DE80700A0F500501F380090039879
:100AA000002D0ADD42F21F014A460844002303A933
:100AB0000390684605F069FC09E0A0F500504A463D
:100AC0001F38002303A90390684605F073FC8DE8E6
:100AD00007000004000C03D04FF0FF30410800E095
:100AE0001046B8F1000F03D00022009215461EE018
:100AF000751E05D400F0E2F9303262556D1EF9D54D
:100B0000B3460122084302D000227F1C04E0207873
:100B1000302801D100227F1E002A099784D01DE0D1
:100B2000112D07DA00F0CAF9303262556D1C50EA17
:100B30000102F5D1084302D00098C8B10EE00021AF
:100B4000681E05E0235C625C63542254401E491C0D
:100B50008142F7DBAB46A81B401E0990002004F839
:100B60000B000B98099AC0F80880C0E9002B7AE7BF
:100B700011264FF0000857E72DE9F04F884604464C
:100B8000D21D22F0070191B0D1E90001CDE90A019F
:100B900005F078FD02460B98C00F01D02D2007E02C
:100BA0002068810701D52B2002E0202101EAC00046
:100BB000032A099001D0072A05DB03464146204657
:100BC00000F0C2F90BE12078800601D5E06900E071
:100BD0000620B8F1650F814606D0B8F1660F18D02F
:100BE000B8F1670F70D131E00020B9F1110F00901A
:100BF00001DB112301E009F101030AAA01A90CA8F4
:100C0000FFF7E2FEDDE90C70002609F101058346DD
:100C100047E001204B4600904FF000470AAA01A987
:100C20000CA8FFF7D1FEDDE90DB00C995D4600265A
:100C300010B909F101000D18B9EB050003D4C0F19A
:100C4000FF3609F10105A5EB09002BE0B9F1010F11
:100C500001DA4FF001090020B9F1110F0090484668
:100C600001DD112300E003460AAA01A90CA8FFF741
:100C7000ABFEDDE90C704D46002683462078000768
:100C80000AD4AB4500DA5D4601A8012D04DD411907
:100C900011F8011C302907D04F4502DA17F1040F73
:100CA00004DA012082460FE06D1EEEE7002F02DC21
:100CB000ED1B3E4403E0781CA84200DD7D1CB81B00
:100CC00000F1010A4FF000472078000703D4AA453D
:100CD00001DB4FF0FF3A0021B7F1004F0DF143085F
:100CE0008DF8431024D002202B23002F01DA7F42FD
:100CF0002D230A21021EA0F1010000DC5FB197FB49
:100D0000F1FC97FBF1F201FB1C7C17460CF1300C57
:100D100008F801CDEEE7A8F101000370218809056C
:100D200001D5452100E06521A0F1010800F8011C72
:100D300009980FA9A1EB0807FF1D00B10120411977
:100D400001EBEA70A1693844081A401EA0612078BE
:100D5000C00602D42046AFF30080099828B1D4E938
:100D600001219047206A401C20622078C00622D5CD
:100D70002046AFF300801EE0002E04DBB34502DD09
:100D800001A8805D00E03020D4E901219047206A6D
:100D9000401C2062761CAAF101005FEA000A0AD119
:100DA00000F06AF8C0680168405CD4E9012190470E
:100DB000206A401C2062281EA5F10105DCDC07E04A
:100DC000D4E9012118F8010B9047206A401C2062E9
:100DD000381EA7F10107F3DC2046AFF300800320A3
:100DE00011B041E601694A1C02610878704700B5FC
:100DF0008FB0CDE901310021059105497944CDE954
:100E0000031011466846FFF7CFFB0FB000BD00008E
:100E1000E5FFFFFF0A6802F8010B0A60704710B592
:100E2000436913B1AFF3008001E0FFF757FB0120E6
:100E300010BD127800F124010A7000224A700122CC
:100E4000EDE711684FF0FF32E9E70000074B70B59E
:100E50000D467B44FFF7CBFF0446284600F026F9F9
:100E600010B14FF0FF3070BD204670BDB784000058
:100E7000004870475C0D0020004870477C0D002042
:100E8000004870475C0D0020034640688C460028EF
:100E900018BF88423CBF03464068F8D3186818441E
:100EA000884207D00CF1030020F00700001D411A12
:100EB000521A0146081D0A60FFF751BA30B5B0F169
:100EC0000A0271F100034FEA900E4EEA817EB0EB08
:100ED0000E0061EB91014FEA101E4EEA017E10EB0D
:100EE0000E0041EB11114FEA102E4EEA016E10EB8D
:100EF0000E0041EB11214FEA104E4EEA014E10EB6D
:100F00000E0041EB1141401841F100014FEAD000C1
:100F100040EA41704FEAD1014FEA810444EA9074FB
:100F200010EB800544EB01046D1944EB0404521BE3
:100F3000A3414FF0000348BF0A3200D530BD401C2A
:100F400041F1000130BD00002DE9F0411F4604468B
:100F500003260168072A01F4006004DB08B116A526
:100F600005E016A503E008B115A500E015A521F0E0
:100F700010002060A069C01EA0610FB1401EA061DA
:100F80002046AFF300804FB1D4E9012138469047A5
:100F9000206A401C2062C01C206206E0206AFAE73A
:100FA000D4E9012115F8010B9047761EF8D22046AE
:100FB000AFF30080BDE8F0814E414E006E616E00DF
:100FC000494E4600696E66002DE9F0478146164697
:100FD0008AB0354878440DC88DE80D003248784411
:100FE000801C03AC0DC884E80D0041F69B3008441A
:100FF000372190FBF1F290FBF1F5A5F1800501FBA3
:1010000012041B3C02D56442012000E00020DFF8FE
:1010100098A080460027FA44AAF1BE0A0EE0E00735
:101020000AD03246684607EB470101230AEB8101EB
:1010300005F0C0F98DE8070064107F1C002CEED18C
:10104000194F7F44AE3F19E0E80715D007EB0410B5
:101050000DF1180A90E80E008AE80E00C068F04210
:1010600001D1981908903246012306A903A805F07A
:10107000A1F903AB83E807006D10641C002DE3D1D8
:101080004FF0010332466946B8F1000F03A802D0C1
:1010900005F07BF901E005F08DF9C9E90001C9F817
:1010A00008200AB0BDE8F08704930000007B00F040
:1010B000800070472DE9F04705460C46C86820F4CB
:1010C000201040F48000C860800602D5084600F079
:1010D00054FAE06841F282014FF0FF3901400229E1
:1010E00003D0204600F0F2F9B5E000F42041B1F55C
:1010F000004F0FD1C00306D56168E06A884200D86E
:101100000846606006E02069E0626060606900F0A7
:101110008DF9A061A0680022EEB200280DDAE16826
:101120008B050AD4C043A06041F490302260E06097
:101130006068411C61600670A5E0E068904622602E
:1011400040F40050E060206968BB606900F060F91D
:10115000012704F12405A0B1A08910F4407F08D034
:10116000E069FFF7CDF8206118B1E06840F4006055
:1011700016E0E7612561E06820F4407040F480608B
:101180000EE0E069FFF7BCF800282061F1D0E068CC
:1011900040F4006010F4407FE06002D140F48070C1
:1011A000E06020696060E06825696FF0010AC105B0
:1011B0001FD56168E06A884200D80846411B04D008
:1011C0002246284600F08CF9F0BBE068010203D506
:1011D000E562C4E9015854E0691CE1626160E169BB
:1011E00040F48030491EC4E9021030462E70BDE83C
:1011F000F087010202D500F480320AE06068411CE9
:1012000061600670E0680A2E40F48030E06006D02D
:101210000022E16A6068814203D90B4602E00122A4
:10122000F7E70346A7895B1B7F0503D4E7699F4265
:1012300000DDE2B1814200D80146E5620F1AC4E93F
:101240000158002B09DD00E005E02246194628463A
:1012500000F046F908B14846C9E747B1A069E56220
:101260006560C01BA061E06840F01000E060E068CD
:10127000000208D56168A069E562491B0844656001
:10128000A0615046B3E73046B1E7000010B54248D0
:101290005421FFF7B8FA41485421FFF7B4FA404807
:1012A0005421FFF7B0FA3F493B483C4A3F4B0860A6
:1012B0003D490A603A491960531C0365481C106592
:1012C000012008653B48344A39A1784400F076F99A
:1012D00020B9384878440A3800F01CFA37482F4AB9
:1012E00035A1784400F06AF920B9344878440A38C6
:1012F00000F010FA32482A4A2FA1784400F05EF933
:1013000020B92F4878440A3800F004FA40232248D4
:10131000DC000021224600F0B5F820B125487844D1
:10132000543800F0F7F91D4822464023002100F010
:10133000A9F820B121487844543800F0EBF9184856
:1013400022461023002100F09DF8002806D01C48FA
:101350007844BDE81040563800F0DCB910BD1048A4
:1013600070B5006D20F001040B4800F09FF90B48A8
:1013700000F09CF90A4800F099F909E0206D20F08E
:101380000105204600F092F92046FEF7E8FF2C46C2
:10139000002CF3D170BD0000600C0020B40C0020C4
:1013A000080D00200000002004000020080000209C
:1013B00072000000269000007700000012900000EC
:1013C000FE8F000010B500F0ADF9BDE8104000F050
:1013D0009CB90EB5CDE90001FFF7C4F9029069464A
:1013E0000120ABBE0EBD08B5694600900220ABBE21
:1013F00008BD1FB58DE8070069460520ABBE04B0E7
:1014000010BD1FB58DE80F0069460620ABBEF6E79C
:1014100008B5694600900920ABBE08BD1CB5CDE9F2
:10142000000169460A20ABBE1CBD704708B569467D
:1014300000900C20ABBE08BD70477546FFF718FD45
:10144000AE4605006946534620F00700854618B0B1
:1014500020B5FEF743FFBDE820404FF000064FF0F7
:1014600000074FF000084FF0000BAC46ACE8C00995
:10147000ACE8C009ACE8C009ACE8C00921F007013C
:101480008D46704770B5C468A50713D0650211D4A6
:10149000B2F5807F09D0B2F5007F06D0B2F5806F3B
:1014A00008D1012300F1240106E05D1E6FF07F46A4
:1014B000B54201D3012070BD0161C361416024F4D4
:1014C00070611143C160002070BD0000C16821F44B
:1014D000001141F08001C16000218160016070470E
:1014E0002DE9F047814614460E464FF0FF3832484A
:1014F000D5685769054209D03846A169FFF78EFFC4
:10150000002811DB2C48C0430540E5602B463246DD
:1015100049463846FFF76DFFA16920F00042B21A34
:1015200011440028A16103D02046FFF7CFFF4046B9
:10153000BDE8F08770B504460569C06A61688842F5
:1015400000D80846E16821F42011E160C90312D5F2
:10155000A84208D02246411B2846FFF7C1FF10B120
:101560004FF0FF3070BD0020E562C4E90150E06833
:1015700020F48030E060002070BD10B50446C068E3
:1015800020F02000E060A16AA06988420DD02046CA
:10159000FFF7D0FFE06820F4405040F01000E0601A
:1015A000A06AA0612069E062606044F24001E068E6
:1015B0008843E06010BD0000100002002DE9F041FA
:1015C0000C461646070047D0104600F06FF820780A
:1015D000611C61280AD0722802D077283CD102E031
:1015E0000125002405E00225042402E0082448F235
:1015F000020511F8010B2B2806D0622809D011F83A
:10160000010C74280AD00BE045F0030544F00204F5
:10161000EFE745F0040544F00104EAE744F0100464
:1016200038462146FFF7D5FE411C15D00021316117
:1016300071604FF40071F560F1617061200704D5AD
:1016400030460222002100F0DBF8306D40F001004E
:1016500030653046BDE8F0810020FBE72DE9F04120
:101660000D460646104C206DC10704D0410804D039
:1016700020F00104F7E722460EE05420FEF740FE7A
:1016800007000ED0206D47F001010843542120656A
:101690003846FFF7B8F83A4629463046BDE8F041EB
:1016A0008CE70020D6E70000600C00202DE9F04711
:1016B00004464FF000094FF0FF37C568D4E90486AF
:1016C000A80707D02046FFF735FF3046FFF78BFE0F
:1016D000002802DA3846BDE8F087280502D54046E2
:1016E000FEF73DFE4C212046FFF78DF8206D20F0DF
:1016F000010020654846EEE710B50446AFF30080D0
:101700002046BDE81040FEF7D5BD002801D000F00E
:1017100071B8704710B500F009F9BDE81040FFF747
:10172000F4BF000010B5012805D0002103A000F08F
:10173000E3F8012010BD09A1F8E700005349475222
:10174000544D454D3A204F7574206F662068656191
:1017500070206D656D6F7279000000003A20486559
:101760006170206D656D6F727920636F7272757034
:10177000746564000000000030B44FF0013C50F884
:10178000042B51F8043BCCFA52F4D51A20D1FCB901
:1017900050F8042B51F8043BCCFA52F4D51A17D167
:1017A000B4B950F8042B51F8043BCCFA52F4D51AD2
:1017B0000ED16CB950F8042B51F8043BCCFA52F41A
:1017C000D51A05D1002CDAD030BC4FF0000070479C
:1017D00029BAB1FA81F111F01801D1F12000844049
:1017E000F2D1CA40CB4012F0FF0213F0FF0330BC2D
:1017F000D01A704701491820ABBEFEE72600020050
:101800002DE9F041044616460D464769007B8007E6
:101810002ED03846FFF7FCFD50BB3EB3012E02D060
:10182000022E25D104E0204600F0A1F805441DE079
:101830003846FFF7FBFDE168002841F01001E16048
:1018400005DA2046FFF742FE0120BDE8F081C9031A
:101850000BD56268E16A914200D81146A269114431
:101860002269891A814200DD08460544002D01DA0B
:101870000220EAE7E16A6068E268814206D29103E9
:10188000E06203D522F4003141F01002A66900277E
:10189000AE4213DCE16A814201D90B4600E0034607
:1018A00003EB060C2369ACEB030CAC4506DD81426F
:1018B00001D98C4600E084469C4505D1A76027608D
:1018C00042F02000A5620DE0AD1BE669AE1B81422F
:1018D000A66000D90846C01A281A2060581960600E
:1018E00022F0200003490840E060002084F848709E
:1018F000ABE70000BFCFD7FF70B505460C460A2006
:1019000000E06D1C00F02CF835B128780028F8D1E3
:1019100002E0641C00F024F814B120780028F8D10B
:10192000BDE870400A2000F01BB8000010B5014669
:1019300002A0FFF7E1FF012010BD0000534947520C
:10194000545245443A2052656469726563743A2082
:1019500063616E2774206F70656E3A20000000008E
:1019600008B569468DF800000320ABBE08BD10B570
:101970000146C268900703D0900607D5886A0AE03E
:10198000FFF77EFA01210160881E10BD8B6948684F
:1019900018440B69C01A91F848301BB191F84910EE
:1019A000401A10BD1103FCD50028FADD401E10BD01
:1019B0000146806B036C026C13F0500F07D0D20607
:1019C00048BF00F00CBC806BC26C0846104742F464
:1019D0000071016401688A6812F0405F01D1027EE3
:1019E0000AB100F0EFBBCA6A12F4700F02D08A6825
:1019F0005205F6D44A6822F020024A60016C21F4B4
:101A000080710164016CC904EBD4016C41F00101E7
:101A1000016400F0D7BB806B40210164416C41F050
:101A20000401416400F0DBBB806B00F0D7BB000019
:101A3000014800F0D5BB00BF18000120FEE7000000
:101A40002DE9F043037A5C1E042C00F2D080036978
:101A5000D0E90089DFE804F00326335679009FEDD2
:101A6000650A4FEA890E4FF0000C0027474500F049
:101A7000BE8002EB87060D461C464846B0EE401A73
:101A800042F827C058B194ED002A95ED003A04358C
:101A900003EE021A0434013886ED001AF2E77344AB
:101AA0000137E3E79FED530A08464C46002C74D0FB
:101AB00090ED001A043030EE010A013CF6E79FED8C
:101AC0004D0A4FEA890E4FF0000C0027474500F001
:101AD0008E8002EB87060D461C464846B0EE401A43
:101AE00042F827C058B194ED002A95ED003A04352C
:101AF00003EE021A0434013886ED001AF2E773444B
:101B00000137E3E79FED3B0A4FEA8905002646458A
:101B10006DD001270420B0EE401A4F450AD21C18A0
:101B200094ED002A0C1894ED003A043003EE021AEA
:101B30000137F2E791ED002A02EB860031EE021A3E
:101B400080ED001A2B440136E1E793ED000A91ED98
:101B5000001A01F1040C21EE000A4FEA890E1C1D47
:101B60000026464543D002EB860701216546234601
:101B7000B0EE401A87ED000A49450BD293ED002ADA
:101B800095ED003A043503EE021A0433013187ED76
:101B9000001AF1E774440136E3E793ED001A03EB12
:101BA000890420EE010A82ED000A9FED120A4FEA35
:101BB000890E01264FF0000C464518D202EB86072D
:101BC0000D4623464846B0EE401A42F826C058B1AA
:101BD00093ED002A95ED003A043503EE021A043322
:101BE000013887ED001AF2E774440136E4E7BDE8F6
:101BF000F08300BF000000002DE9F84F2DED101B11
:101C0000D0E9032B017A03684468002A089341D085
:101C1000042940F0AA8001200D9045E008988245F3
:101C200000F0FE810D98504407F094FE099A079B3E
:101C300007F04AFC069B324607F0A0FEDDE90B32B6
:101C400007F0EAFC074688464FF000095D464C4520
:101C500019D0484607F07EFE02460B4638464146FC
:101C600007F08CFE41EC100B04F0B6FD51EC100BAC
:101C700002460B4607F028FC07F0F4FB4BF8040B78
:101C800009F10109E3E70A98AB4605EB000B0AF1FD
:101C9000010AC3E7481E042867D800210D91DFE838
:101CA00000F018678903E400204607F053FE9FED1B
:101CB000E40BCDE90B10A0000A9051EC100B9FED46
:101CC000E20B4FF0000A099050EC106B0791069060
:101CD000A4E72046CDF81CB007F03CFE9FEDD80BE2
:101CE000CDE90C10A00009905BEC100B9FEDD60B1A
:101CF000002155EC106B0B900898814200F0908108
:101D000008460A9107F026FE079F804689464FF055
:101D1000000A544522D0504607F01CFE0B9A5B4641
:101D200007F0D2FB32462B4607F028FEDDE90C32E5
:101D300007F072FC42464B4607F020FE41EC100BC8
:101D400004F04AFD51EC100B02460B4607F0BCFBB9
:101D500007F088FB01C70AF1010ADAE70798099939
:101D600008440A9907900131C6E74FF0FF3058E167
:101D7000A000079007F0EEFD9FEDAD0B02460B466D
:101D800051EC100B07F048FC41EC100B04F0F4FF91
:101D900051EC100B02460B4607F096FB07F062FB76
:101DA00000EE100A5846214600297DD0A0EC010A19
:101DB0000139F9E76000CDF81CB007F0CBFD41EC2C
:101DC000100B04F0D9FF9FED9C1B53EC102B51EC32
:101DD000110B07F021FCCDE90C10204607F0BAFDED
:101DE0009FED970BCDE90A10A000059057EC100B62
:101DF0009FED950B002158EC109B099008988142AB
:101E000000F00E810846069107F0A4FD079E824669
:101E10008B460025AC4221D0284607F09BFD099A4D
:101E20003B4607F051FB4A46434607F0A7FDDDE974
:101E30000A3207F0F1FB52465B4607F09FFD41EC8A
:101E4000100B04F0C9FCDDE90C1053EC102B07F06B
:101E500095FD07F007FB01C60135DBE707980599FB
:101E60000844069907900131C8E7204607F072FD43
:101E700041EC100BCDE9061004F07EFF9FED6C8B5A
:101E800053EC102B51EC180BCDE90C1007F0C4FBF0
:101E900007F0E8FA00EE100A5846214600295AD009
:101EA000A0EC010A0139F9E7600007F053FD41ECAD
:101EB000100B04F061FF9FED601B53EC102B51ECF5
:101EC000110B07F0A9FBCDE90C1020460BEB8405A4
:101ED00007F040FD9FED5A0B9FED5B8B0E460121F5
:101EE00058EC107B0B900898814280F0998008464E
:101EF000099107F02FFD824689464FF0000B0A95A5
:101F00005C4522D0584607F025FD3A46434607F087
:101F1000DBFA53EC182B07F031FD0B9A334607F030
:101F20007BFB52464B4607F029FD41EC100B04F0B9
:101F300053FCDDE90C1053EC102B07F01FFD07F0EC
:101F400091FA01C50BF1010BDAE707980A9D09998F
:101F500005440131C7E79FED380BDDE9063251EC4E
:101F6000100B07F059FB41EC100B04F005FF9FED3F
:101F7000341BA000059052EC110B9FED331BCDE9F3
:101F8000032052EC110B0BF1040A0021CDE90120D2
:101F90005BEC100B0B900898814241D008460991E8
:101FA00007F0D8FCDDE9033207F08EFADDE90132F3
:101FB00007F0E4FCDDE9063207F02EFBB0EE480A3C
:101FC000804689460127F0EE680ACDF828A0A7428E
:101FD0001FD256EC105B404649462A46334607F06E
:101FE000CDFC41EC100B04F0F7FB0B9853EC102BDD
:101FF000594607F0C3FC07F035FA4AF8040BDDE94F
:102000000C322846314607F05FFA41EC100B0137DD
:10201000DDE70598DDF828A0099982440131BAE787
:102020000020BDEC101B01B0BDE8F08F00BF00BF69
:10203000000000000000F03F000000000000004031
:10204000000000000000E03F182D4454FB2109402F
:10205000014800F019BB00BF6000012010B5016805
:102060006FF00F0252FA81F21823B2FBF3F306A4C9
:10207000E35C40F2FF34A1435F2A88BF0431C0E92A
:102080001613084610BD00BF0006101600061016F5
:10209000B0B5046880682568402825F48025084686
:1020A0002560636008BF1046A06008BF0A46E26072
:1020B000B0BD7047EFF3108072B6FEE770470000C6
:1020C000F8B50022009290F83C20012A01D10221AB
:1020D00045E0012280F83C200A681FFA82FC4FEAA2
:1020E0004C0414FA82F50A2A04D304681E3D04F154
:1020F0000C0602E0046804F1100607273368AF40BD
:10210000BB4333608B68AB4035682B4333604D680D
:10211000062D05D805EB850304F134015D1F0BE0A6
:1021200005EB85060C2D87BF04F12C01A6F14105B6
:1021300004F13001A6F123051F230E68AB4026EA07
:1021400003030B600CFA05F30D682B430B60BC49CD
:10215000A1F541739C4204D0002180F83C10084650
:10216000F8BD112A0DD0144B9A420AD0122AF3D18D
:102170000A6822F400020A600A6842F480020A60D7
:10218000EAE70B6823F480030B600B6843F4000359
:102190000B6009498A42DFD10849094A0968B1FB45
:1021A000F2F101EB81014900009100990029D3D09F
:1021B00000990139F8E700BF120000105C07002009
:1021C00040420F000349884200D070470248012175
:1021D0000170704718000120BC0D00207047704747
:1021E00070B50446006806684568B10717D515F054
:1021F000200114D0216CC90603D4216C41F4007174
:102200002164816811F0405F02D1217E002965D0F0
:102210002046FFF7D7FF20686FF0120101607107B9
:1022200014D515F0800111D0216CC90603D4216C9E
:1022300041F400512164816811F4401F21D02046EF
:10224000FFF73CFF20686FF00C010160F10706D03A
:1022500015F040011CBF01685FEAC17132D1B106BF
:102260000ED515F080610BD0616C6FF0200541F048
:102270000201616405602046FFF7B1FF2068056038
:1022800070BD816B11F4401F02D081684905D6D41E
:1022900041684905D3D4816811F0405FCFD1217ED8
:1022A0000029CCD1416821F080014160206C20F4EC
:1022B00080502064206CC005C1D4206C40F0010027
:1022C0002064BCE7206C40F480302064204600F09D
:1022D000BFF820686FF001010160C0E7C16A11F426
:1022E000700F02D08168490592D4416821F0200125
:1022F0004160206C20F480702064206CC0043FF5A5
:1023000087AF206C40F00100206481E7002841D0B5
:1023100070B50446006C30B9204600F09BF80020F0
:1023200084F83C006064206CC00635D4206C41F217
:1023300002118843023042492064086820F440308A
:10234000086094E80D0025690E6832430A60416810
:1023500021F480714160416841EA05214160416892
:1023600021F0407141604168194341608168354BFB
:1023700021F400618160E1688268114381608168B5
:1023800021F070618160A26A81689A4206D121F0D1
:1023900040510CE00120704701204CE01143816066
:1023A000816821F040518160E16A82681143816057
:1023B000816821F002018160217E94F820208368E9
:1023C00043EA4101816041686AB141F400614160C2
:1023D00041681D4A21F460414160616A02EB41316C
:1023E0004268114301E021F400614160C16A174B6A
:1023F00021F47001C162E269616903EB0252C36AB0
:102400001A43C262826822F40072826094F830201B
:10241000836843EA42228260826822F4806282609A
:10242000826842EA8121816000206064216C01227F
:1024300062F301012164002184F83C1070BD00BFEB
:10244000042301400100000F00E0FFFF0000F0FF47
:102450007047000070B586B0044601A81421FEF74D
:10246000D2F921687248814241D1002685490096FF
:102470004A6900F5604042F480724A614A6902F498
:1024800080720092009A00960A6842F001020A6087
:10249000096801F0010100910321039602910121D5
:1024A0000191009901A900F077FA124D124B4FF4F7
:1024B00000504FF400614FF48062C5E90866C5E939
:1024C0000036C5E90266C5E90421C5E906062846C5
:1024D00000F092F908B1FFF7EDFD12200021002273
:1024E000AC63A56300F0AEFD122000F09DFD06B0C8
:1024F00070BD00BF60000120106402407CB504463E
:102500000020019094F83C00012804BF02207CBD0B
:10251000012084F83C0013460A4621688868C007F9
:1025200010D188683E4D40F001008860B1480068D5
:10253000B0FBF5F000EB40000190019810B101985C
:102540000138F9E78868C00503D5886820F48070F1
:1025500088608D68206CED0707D140F01000206482
:10256000606C40F00100606457E040F20175A843E0
:1025700000F5807020644868400504D5206C012572
:1025800065F30D302064206C0025C00444BF656CE9
:1025900025F0060565646FF022050D604D6800208A
:1025A00045F080654D6084F83C00A06B1D4D1F4ECA
:1025B000C5641D4DC0E90F658D6845F480758D605B
:1025C0004C3100F0A5F91A492068D1F80423D2064D
:1025D0000AD0884221D1886810F0405F1DD18868F8
:1025E00040F08040886018E088420ED0114A904246
:1025F00007D0114A904210D1D1F80413C9060CD16A
:1026000003E0D1F80413C90607D4816811F0405FD4
:1026100003D1816841F08041816000207CBD00BF12
:1026200040420F00171A0008291A0008B1190008C3
:1026300000200140002201400021014060B110B59E
:102640000446407920B900202071204600F006F8A9
:1026500001206071002010BD0120704781B0094940
:102660000068A1F5036290420AD10020009008683A
:1026700040F480500860086800F480500090009892
:1026800001B0704730380240F8B504460020009091
:10269000D4E91660574A08211568376881403942E5
:1026A0000CD0226813685B0708D5136823F0040375
:1026B0001360B160616D41F00101616501218140EC
:1026C000394208D022685269120604D5B160616DA2
:1026D00041F00201616504218140394208D022683D
:1026E0001268920704D5B160616D41F00401616523
:1026F00010218140394217D020680268120713D593
:10270000B16002680168520306D4C90506D40168A5
:1027100021F00801016001E0080301D4216C00E010
:10272000A16C09B120468847E16D202000FA01F232
:102730003A423BD020680368DB0637D5B26094F894
:1027400035300268052B19D122F016020260426969
:1027500022F080024261226C0AB9A26C1AB10268AE
:1027600022F0080202603F208840B060002084F818
:102770003400012084F83500216D37E001685203F0
:102780000CD4C9050ED4016821F0100101600020AD
:1027900084F83400012084F8350003E0080301D4F4
:1027A000616C00E0E16B09B120468847606D00B3C1
:1027B000606DC00719D0052184F8351021684FF4E9
:1027C00016500A68B5FBF0F022F001020A60009A88
:1027D00001328242009202D80A68D207F7D1002063
:1027E00084F83400012084F83500E16C09B12046FA
:1027F0008847F8BD5C0700202DE9F041044600F051
:10280000AFF9ACB10546022084F83500002084F809
:1028100034002168086820F0010008600868C007DB
:1028200009D000F09DF9401B052837D82168F5E74D
:102830000120BDE8F0810868344A271DE8CF00EA8E
:10284000020E43EA0E032B43D4E9050C33433B430A
:10285000D4E90728184340EA0C00636A104340EAB1
:102860000802042B1ED1D4E90A53206B1A431043EB
:10287000086051F8140F20F0030040EA050040F012
:102880000402B3B1BCF5005F24D0BCF1000F31D11C
:10289000022D32D0012D27D07DB30AE00326202758
:1028A000032012E00A6051F8140F20F0070040EAFC
:1028B000030220460A60FFF7D1FBE16D3F2202FAD6
:1028C00001F18160002701260020676584F83560EA
:1028D000BDE8F081032DECD8012640270120DFE878
:1028E00005F0020C0203F0E7A3F1C070B0FA80F02B
:1028F000400904E0032D04D3DBD1C3F300600028BA
:10290000D7D0012640270120DFE700BF3F8010F02D
:10291000B0B5044690F83400012828D00120A56DF8
:1029200084F8340094F8350001281DD1022084F881
:102930003500002060652046FFF7AAFBE26D3F23CB
:10294000206803FA02F2216CAA60026842F01602C3
:10295000026019B1016841F008010160016841F0AD
:10296000010101600020B0BD002084F83400022085
:10297000B0BD0000B0B5044600F0F2F805460548C9
:10298000611C007818BF044400F0EAF8401BA04224
:10299000FAD3B0BD7C0000202DE9FC4F634A0A2425
:1029A0009042634A08BF092402444FEAB223092B2C
:1029B0004FF0010B4FF000094FF000034FF0000AF9
:1029C00038BF4FEAB2240094202B08BFBDE8FC8F2B
:1029D0000F680BFA0AF6374200F0A2804F6807F042
:1029E0000308A8F10104012C18D80322856802FA13
:1029F00003F425EA040CCD684FEA4A0E9D4045EAEF
:102A00000C058560C7F3001505FA0AFC4568B54357
:102A100045EA0C056FEA040C45600BE003249C407A
:102A20006FEA040CB8F1030F9E4603D19E464FF0A7
:102A3000030820E0C4688D6804EA0C0405FA0EF56A
:102A40002C43B8F1020FC46015D109F01C040F2209
:102A500002FA04F86FF0030202EA5A0707443D6ADB
:102A600025EA08080D6905FA04F444EA08043C6202
:102A70004F6807F00308056808FA0EF405EA0C052C
:102A80002C4317F4403F04604AD0002201922B4AA5
:102A90002AF00307146844F48044146014680F2279
:102AA00004F48044019409F00C0402FA04FC214A65
:102AB000019D96461744224A9046BD58009A25EA41
:102AC0000C0502FA04F42C4347F80840DEF80840ED
:102AD0004F6844EA0605FA02174A58BF24EA060579
:102AE000CEF8085094461268BD0242EA060458BF68
:102AF00022EA0604CCF80040DEF80420BD0342EAD6
:102B0000060458BF22EA0604CEF80440DEF800208E
:102B1000FD0342EA060458BF22EA0604CEF800404C
:102B200009F1040902330AF1010A4DE700240240C9
:102B30000000FEBF003C01400C3C01404438024014
:102B400008FCFFFF426902EA0103914341EA0341A5
:102B500081617047002A08BF090481617047000045
:102B600001480068704700BFD065012090F83D2003
:102B7000202A1CBF02207047242280F83D200268D2
:102B8000136823F001031360536A23F010035362A8
:102B9000536A19435162116841F00101116020210B
:102BA00080F83D100020704710B590F83D20202A95
:102BB0001CBF022010BD242280F83D2002684FF681
:102BC000F074136889B223F001031360536A234041
:102BD00019435162116841F001011160202180F810
:102BE0003D10002010BD0000F8B560B3044690F819
:102BF0003D0028B9002084F83C00204600F080F910
:102C0000242084F83D002068016821F00101016062
:102C1000016841F400410160016821F40041016054
:102C200000F0D0FA49494A4B002288424FF0000197
:102C300038BF0121984238BF01226368454DAB423D
:102C400038BF0A460AB10120F8BD4349434EB0FBE4
:102C5000F1F22168B3424D6825F03F0545EA0205CF
:102C60004D600D6A25F03F0511D801322A430A62F2
:102C70005A000138B0FBF2F04CF6FF7301306FF3ED
:102C80001F30042898BF0420CA699A4337E04FF4E4
:102C9000967672434FF47A76B2FBF6F2013801323F
:102CA0002A430A62CA694CF6FF75AA43A56845B172
:102CB00019265E43B0FBF6F60427013667F31F368C
:102CC00006E003EB4306B0FBF6F601366FF31F3662
:102CD000360509D055B119256B43B0FBF3F0042339
:102CE000013063F31F3008E0012008E003EB4303E9
:102CF000B0FBF3F001306FF31F3040F4004010439D
:102D0000C861E0690A6804F10C0622F0C0021043B1
:102D1000226A10430860886848F2FF3290436CCE04
:102D2000184310438860C86820F0FF0028433043F0
:102D3000C860086840F0010008600020202120647D
:102D400084F83D10206384F83E00F8BD80841E00A6
:102D500000093D00A186010040420F00A08601004D
:102D60002DE9FC471F46164689460446FFF7F8FE44
:102D7000824694F83D0020280ED1604D204605F58E
:102D8000702101221923CDF800A000F03EFE18B9F1
:102D900094F83C00012802D10220BDE8FC87012004
:102DA00084F83C0020680168C90703D1016841F03C
:102DB000010101600168A5F1021221F400610160C6
:102DC000212184F83D10102184F83E100021216457
:102DD0006785618DE26266622185E16ADDF828809F
:102DE00011F5803F18BF01291BD1016841F48071A2
:102DF000016020464FF0011100224346CDF800A0AB
:102E000000F003FE38B120680068C00544BF4FF4ED
:102E10000070206424E02069B0F5804F07D1FE20C7
:102E200013E00829E1D0216B1229DED0E1E706206A
:102E300000EAD9102168F0300861A91D20464246F9
:102E4000534600F01DFE58B9FF20216800EA090032
:102E50000861204629464246534600F011FE10B153
:102E60000120BDE8FC8700200190206841690191A4
:102E7000806901900198208D88B3204641465246D2
:102E800000F049FE10BB606A2168024612F8013B5F
:102E90000B61638D013B63856262228D561E268520
:102EA0004B69360418BF13F0040308D0437802308E
:102EB0000B616062901E2085608D01386085204620
:102EC0004146524600F07BFD0028D4D0206C0428F7
:102ED000C6D12068016841F400710160C0E7206834
:102EE000016841F400710160202084F83D00002059
:102EF00084F83C0084F83E00BDE8FC870200010035
:102F0000B0B586B0044601A81421FDF77CFC216809
:102F10001448814223D10025134C0095216800F507
:102F2000D83041F002012160216801F002010091D6
:102F3000042105910321CDE9035112210291C02101
:102F40000191009901A9FFF727FD0095206940F440
:102F500000102061206900F400100090009806B075
:102F6000B0BD00BF00540040303802401F48034944
:102F700000780A6810440860704700BFD0650120DF
:102F800080B50B48016841F400710160016841F4AB
:102F900080610160016841F480710160032000F0EC
:102FA0006DF80F2000F006F800F022F8002080BD38
:102FB000003C024070B50D4E044630784FF47A71F3
:102FC000B1FBF0F089490968B1FBF0F000F0D4FAE8
:102FD00001250F2C08D838B94FF0FF3021460022C8
:102FE000002500F02FF87460284670BD7C0000209A
:102FF00082B000200B4901904A6842F480424A6046
:103000004A6802F480420192019A0090086840F0F8
:1030100080500860086800F080500090009802B06E
:10302000704700BF40380240002808D400F01F015C
:10303000012202FA01F1024A400942F820107047C9
:1030400000E100E0B0B5134B4FF0FF351B68C3F350
:103050000223DC1E83F0070338BF0024042B28BFA3
:10306000042305FA03F3994305FA04F3A1409A43B4
:103070001143BDE8B04001F07BB900BF05494FF6F0
:10308000FF030A681A4060F30A22034810430860ED
:10309000704700BF0CED00E00000FA052DE9F0419B
:1030A000002800F08680444B0446D3F8000488468C
:1030B00000F00F00884207D283F80084D3F80004A0
:1030C00000F00F00404574D12068810711D54107F9
:1030D00003D5996841F4E0519960010703D59968D7
:1030E00041F460419960A1689A6822F0F0021143AE
:1030F0009960C0072BD06068811E022903D219682D
:10310000890109D455E0012803D11968890303D442
:103110004FE0196889074CD599681D4621F00301D5
:1031200008439860FFF71CFD064641F28837606847
:10313000A9682B4601F00C01B1EB800F07D0FFF717
:103140000FFD801BB842F2D90320BDE8F081D3F80F
:10315000000400F00F00404507D983F80084D3F83D
:10316000000400F00F00404523D12068410705D539
:10317000E1689A6822F4E05211439960000706D58D
:103180002069996821F4604141EAC00098601C46BA
:1031900000F032F8A168094AC1F30311515CC8403C
:1031A0001249086006480068FFF704FF0020BDE8E8
:1031B000F0810120BDE8F0810038024010A3000832
:1031C0008000002009480A4900680968094AC1F3DB
:1031D0008221515CC840704704480549006809686D
:1031E000044AC1F34231515CC84070475C0700207B
:1031F0000838024020A3000810B5134C606800F0A6
:103200000C00082804D0042814BF1048104810BD32
:103210002268206802F03F0240020D485CBF42F283
:103220000040C0F2F40021680023C1F38811A0FB24
:103230000101FDF7BBF821680222C1F3014102EB55
:103240004101B0FBF1F010BD043802400024F4004D
:1032500040787D012DE9FC41002800F0D080044633
:103260000078C24EC00744D0B06800F00C000428BB
:1032700005D1306880033CD56068D0BBBFE0B06842
:1032800000F00C00082802D170684002F1D4676891
:10329000B7F5803F06D03068B7F5A02F12D140F4C3
:1032A00080203060306840F480303060FFF758FC98
:1032B0000546306880031CD4FFF752FC401B64288D
:1032C000F7D9DFE020F480303060306820F48020CF
:1032D0003060FFF745FC0546002FEAD106E0FFF716
:1032E0003FFC411B0320642900F23E8130688003CB
:1032F000F5D4207880072CD5B06810F00C0F07D0DB
:10330000B06800F00C00082809D17068400206D4AB
:103310003068800716D5E068012813D06FE0E068B8
:10332000002800F0D080924801210160FFF718FCCE
:1033300005463068800705D4FFF712FC401B0228C1
:10334000F7D99FE02069316821F0F80141EAC00017
:1033500030602078000720D56169854871B101216E
:10336000C0F8801EFFF7FCFB0546706F800714D481
:10337000FFF7F6FB401B0228F7D983E00021C0F8D5
:10338000801EFFF7EDFB0546706F800705D5FFF740
:10339000E7FB401B0228F7D974E02078400731D4BE
:1033A000A769002F00F0DF80B06800F00C0008284B
:1033B0006BD1012F23D0E169706800F480028A424A
:1033C0001DD1216A00F03F028A4218D147F6C07130
:1033D000626A0140B1EB821F11D1A16A4FF6FF7200
:1033E000C9039143A1F5803100F440328A4206D1ED
:1033F000E16A00F07060B0EB016F00F0B480012072
:10340000BDE8FC81306C4FF00008C0000CD4CDF852
:103410000480306C4FF0010840F080503064306C14
:1034200000F0805001900198524F3868C0050FD4C9
:10343000386840F480703860FFF792FB05463868C2
:10344000C00505D4FFF78CFB401B0228F7D919E013
:10345000A768012F05D0306F052F45D140F004003B
:103460003067306F40F001003067FFF779FB0546A9
:1034700041F28837306F80074ED4FFF771FB401B55
:10348000B842F7D90320BDE8FC81394900208846BD
:103490000866FFF765FB0546022F0AD147463068EC
:1034A000800142D5FFF75CFB411B03200229F6D9BE
:1034B0005AE03068800156D5FFF752FB411B0320CC
:1034C0000229F6D950E02A4800210160FFF748FBA5
:1034D0000546306880077FF53CAFFFF741FB411B95
:1034E00003200229F5D93FE020F001003067306F5A
:1034F00020F004003067FFF733FB0546002FB7D1FB
:1035000041F28837306F800706D5FFF729FB411B52
:103510000320B942F6D927E0B8F1000F3FF440AFDD
:10352000306C20F0805030643AE71C341FCC0843E4
:1035300040EA8210D9034FF6FF72914340EA0460DB
:10354000A1F580310843706001203866FFF708FB61
:1035500004463068800106D4FFF702FB011B0320FC
:103560000229F6D900E00020BDE8FC8100380240C5
:103570000000474200700040411E0020B0EB116F78
:103580001CBF01207047044AF023516003490B70AF
:10359000072190601160704710E000E023ED00E02B
:1035A00010B590F83C300222012B30D080F83D203D
:1035B000012280F83C2002680B685468B2F1804F09
:1035C00024F0700444EA03049368546014D0494C16
:1035D000A24211D0484CA2420ED0484CA2420BD07D
:1035E000474CA24208D0474CA24205D0464CA242CA
:1035F00002D0464CA24204D1496823F0800319430B
:1036000091600022012180F83C2080F83D10104696
:1036100010BD00BF40B310B5044690F83D0028B976
:10362000002084F83C00204600F020F8022084F8B6
:103630003D002068211D00F035FD012084F8460082
:1036400084F83E0084F83F0084F8400084F841008C
:1036500084F8420084F8430084F8440084F845006C
:1036600084F83D00002010BD0120704781B0006843
:10367000244988420BD1002000900648016841F09F
:1036800001010160006800F001000090009801B0A5
:10369000704700BF4438024090F83D1001291CBF1C
:1036A00001207047022180F83D100068B0F1804F82
:1036B00014D01049884211D00F4988420ED00F49CA
:1036C00088420BD00E49884208D00E49884205D066
:1036D0000D49884202D00D49884204D1816801F029
:1036E0000701062903D0016841F0010101600020B3
:1036F000704700BF0004004000080040000C00407C
:10370000001800400000014000400140000401405A
:1037100010B590F83C2004460220012A70D084F8AD
:103720003D00012084F83C0020684FF677738268E2
:103730009A4382600A6812B3102A20D0202A1ED031
:10374000302A1CD0402A21D0502A2BD0602A35D0D4
:10375000B2F5005F3ED0B2F5805F4AD0702A50D1FA
:10376000D1E90123C9681A4342EA0121826822F49F
:103770007F4211438160816841F0770138E08168C0
:1037800021F07001114341F0070131E04B68CA6834
:10379000194600F0F1FC2068816841F0470121F0F2
:1037A000300125E04B68CA68194600F0E5FC206846
:1037B000816841F0570121F0200119E04B68CA6887
:1037C000194600F0EAFC2068816841F0670121F0A9
:1037D00010010DE0D1E90123C9681A4342EA012131
:1037E000826822F47F4211438160816841F4804104
:1037F00081600020002184F83C10012184F83D10F4
:1038000010BD0120F6E750B310B5044690F83D0016
:1038100028B9002084F83C00204600F023F824203A
:1038200084F83D002068C16821F40051C160204641
:1038300000F0C4FC2068016921F4904101614169F4
:1038400021F02A014161C16841F40051C1600020AA
:103850002021206484F83D1084F83E1010BD012022
:103860007047000010B586B0044601A81421FCF78B
:10387000CAFF21681448814224D10021134A0091D3
:10388000536900F5704043F010035361536903F02E
:1038900010030093009B0091136843F00103136031
:1038A000126802F001020092072205920322CDE97C
:1038B0000312022102914FF4C0610191009901A904
:1038C000FFF76AF806B010BD001001403038024022
:1038D0002DE9F047044690F83D0020280AD10D4616
:1038E0000120002950D01646002A4DD094F83C0003
:1038F000012802D10220BDE8F0874FF0000A012024
:10390000C4F840A084F83C002120994684F83D008A
:10391000FFF726F9E684A6848046A068B0F5805FAC
:1039200006D127690026002F0CBF2E462F4601E046
:103930002F46002684F83CA0E08CB8B120468021B8
:1039400042464B4600F09EFCB8B927B117F8010B70
:103950002168486006E036F8021B20686FF35F219B
:1039600041600027E08C0138E084E5E720464021F3
:1039700042464B4600F086FC10B10320BDE8F087BC
:10398000202084F83D000020BDE8F087FEE70268B3
:10399000516949054FF000010FD56FF48063536101
:1039A0002022016380F83D2080F83E1080F83C1012
:1039B000016C41F004010164012108467047F8B52B
:1039C00015460E4604464F1C2068406940071AD42D
:1039D0002046FFF7DCFFA0B9002FF5D0FFF7C0F8B5
:1039E00016B1401BB042EFD900202021206384F89B
:1039F0003D1084F83E0084F83C00206C40F020002C
:103A000020640120F8BD0020F8BD2DE9F047DDF865
:103A100020909A46164680468FB201F47F045D1CC2
:103A20001820B4F5803F08BF1420D8F800100858BB
:103A30003840C01BB0FA80F04009B0421DD1002DC3
:103A4000EED0FFF78DF8BAF1000F03D0A0EB09001C
:103A50005045E5D900202021C8F8300088F83D10F5
:103A600088F83E0088F83C00D8F8400040F020007C
:103A7000C8F840000120BDE8F0870020BDE8F087CD
:103A80002DE9F8439846164681468FB201F47F052A
:103A9000541CD9F80000B5F5803F0CBF416981691D
:103AA0003940B9421AD0416949051AD4002CF0D0E6
:103AB000FFF756F81EB1A0EB0800B042E9D900208C
:103AC0002021C9F8300089F83D1089F83E0089F8B6
:103AD0003C00D9F8400040F0200017E00020BDE88D
:103AE000F883016841F4007101606FF48061416105
:103AF00000202021C9F8300089F83D1089F83E00E7
:103B000089F83C00D9F8400040F00400C9F84000B2
:103B10000120BDE8F883F8B515460E4604464F1C53
:103B20002068406900061AD42046FFF730FFA0B98C
:103B3000002FF5D0FFF714F816B1401BB042EFD9B3
:103B400000202021206384F83D1084F83E0084F892
:103B50003C00206C40F0200020640120F8BD0020D3
:103B6000F8BD000080B548B19FED131AB4EEC10A4C
:103B7000F1EE10FA0FDA9FED0F1A18E09FED121A0E
:103B800080EE010A02F08CFEBFEE001A30EE010A50
:103B90009FED0E1A0BE09FED091A30EE010A9FED22
:103BA000081A20EE010A02F07BFE9FED061A20EEB5
:103BB000010A80BD5555854201007041010070C168
:103BC000BBCD8C3D00007A4400E08C4400002F44C3
:103BD000F8B52DED048B14460268054690ED029A67
:103BE00090ED038AD2E9000286691769324600F037
:103BF000A5F9286831464068224600F049F8204679
:103C0000394639B190ED000A013980EE090AA0EC7D
:103C1000010AF6E74FF4000021463A4652B191ED11
:103C2000000A013AB5EEC00AF1EE10FAD8BF0860FA
:103C30000431F3E7287940B137B394ED000A02F07C
:103C4000E5FFA4EC010A013FF6E7B2EE049A25462F
:103C50003E464EB195ED000A02F018FF20EE090A2B
:103C6000A5EC010A013EF4E7B1EE480A67B194ED14
:103C7000001A013FB4EEC01AF1EE10FAB8BFB0EE70
:103C8000401AA4EC011AF1E7BDEC048B01B0F0BDC1
:103C9000F0B5D0E900CE856800699FED100A0026D6
:103CA000864208BFF0BD3CF826303EF8267001EB96
:103CB0008304B0EE401ABB4209D895ED002A94ED7A
:103CC000003A043403EE021A01330435F3E702EB41
:103CD000860383ED001A0136E2E700BF0000000012
:103CE0002DE9F84F2DED165B0446D0E9009A856862
:103CF000806A94ED060A05906069E66A0490B8EE61
:103D000040AA94F8247094ED070AD4F8108094ED3A
:103D1000089A384600F0C8F8B0EE408AB0EE490A7A
:103D20003846029700F0C0F8404608F101004FF015
:103D3000000B01EE100AC4F80CB0CDF80480B8EE08
:103D4000411A049830EE480A4FEA500880EE01CA42
:103D5000B6EE000A01EE108A2AEE000AB8EE411A09
:103D600080EE01DA52464946B0EE00EACDE903A9F9
:103D70000198834500F0918000EE10BAB8EE400A39
:103D8000B0EE489A0CEE009A3EB3029F4549B0EE61
:103D9000490A3846894688470BF10100B0EE409A3F
:103DA00000EE100AB8EE401AB0EE480A38460CEEA3
:103DB000010AC8470BF10200B0EE40BA00EE100A4B
:103DC000B8EE401AB0EE480A38460CEE010AC84771
:103DD000DDE90321B0EE40AA13E00BF1020000EE92
:103DE000100AB8EE400AB0EE48AA0BF101000CEE42
:103DF00000AA00EE100AB8EE400AB0EE48BA0CEE87
:103E000000BA3AEE490ACEEE008A3AEE4BFA3BEEA1
:103E100049BA4FF000094FF0FF374FF0FF3AC8455D
:103E200038D000EE109AB8EE400A2DEE000A26B9FE
:103E3000029800F039F8DDE9032130EE491A3AEE34
:103E4000400A81EE0B1A80EE0F0AB4EEC01AF1EEB2
:103E500010FAB8BFB0EE410AB5EEC00AF1EE10FAA2
:103E600011DD059828EE801A002808BFB0EE401A30
:103E700085ED001AE068043501304F46E0601AF124
:103E8000010008BFCA4641F82BA042F82B7009F187
:103E90000109C4E70BF1010B6AE7BDEC165B01B049
:103EA000BDE8F08F653B000880B558B19FED141A4E
:103EB000B4EEC10AF1EE10FA13DA9FED101A80EE9B
:103EC000010A80BD9FED111A80EE010AB7EE001ABB
:103ED00030EE010A02F09AFE9FED0D1A20EE010A63
:103EE00080BD80EE010A02F091FE9FED061A80EE81
:103EF000010A9FED051A30EE010A80BD5555854235
:103F000000007A44BBCD8C3D0100704100002F447D
:103F100000E08C44FEE770B50546EE680068144684
:103F20003246FFF755FE686831462246BDE87040CC
:103F3000FDF786BDFEE77047704700002DE9F843A6
:103F40002DED048BD0E904690F46816814460546BF
:103F5000D0F8188038463A46334600F0E1FE07EBC9
:103F60008600A9EB0601FCF74EFC2868394642465C
:103F7000002301F053FA98ED000A4FF0FF3098ED5E
:103F8000018A20EE000A00EB5902211D08F1080009
:103F900084ED000A00F0B4FE4FEA590004EB800102
:103FA00028EE080A81ED000A2979F1B99FED119AEE
:103FB000451CD5B194ED008AB0EE490AB5EEC08A31
:103FC000F1EE10FA08DBB0EE480A02F012FFB4EE90
:103FD000C00AF1EE10FA03D6A4EC010A013DE8E7AD
:103FE000B0EE480A02F005FFF6E7BDEC048B01B025
:103FF000BDE8F08300000000FEF7B8BF70B592B0D6
:1040000006AC201D1421FCF7FEFB01A81421FCF7CF
:10401000FAFB00251D4800950168022641F08051F9
:104020000160006800F080500090009818480095EA
:10403000016866F38F310160006800F44040009031
:104040000420CDE910607B200F9008200E901020F6
:10405000CDE90C650A90012009900696009820464B
:10406000FFF7F8F880B94FF4805005904FF4A05056
:1040700004900F20CDE90265019001A80421FFF70B
:104080000DF808B912B070BDFEF714F840380240C0
:10409000007000400248016841F4700101607047FF
:1040A00088ED00E0B0B50268B0F1804F0ED0274B2C
:1040B00098420BD0264B984208D0264B984205D008
:1040C000254B984202D0254B984203D14B6822F0F1
:1040D00070021A43B0F1804F20D01C4B98421DD083
:1040E0001B4B98421AD01B4B984217D01C4B98423E
:1040F00014D01C4B984211D01B4B98420ED0174B3A
:1041000098420BD0144B984208D0184B984205D0D7
:10411000174B984202D0174B984203D1CB6822F438
:1041200040721A434D690B688C6822F080022A4362
:104130000260C4628362084B40F480629A4204BF0A
:104140000969016301214161B0BD00BF0004004065
:1041500000080040000C0040000401400000014045
:1041600000180040001C00400020004000400140BA
:10417000004801400044014010B5036A046A24F07D
:1041800001040462846924F0F00444EA02128261AA
:1041900023F00A021143016210BD036A23F01003E9
:1041A0000362836923F4704343EA0232036A826143
:1041B00023F0A00242EA011101627047B0B5044643
:1041C000006804F108030ECB0569194325F4405536
:1041D0002A430261C268636949F20C651943E369C5
:1041E000AA4319431143C1604169A26921F4407196
:1041F00011434161224940F48060884202D1FEF7B8
:10420000EBFF01E0FEF7DEFFE26919216368A0FB26
:104210000101B2F5004F18D15A00DB0FFCF7C6F8C8
:104220006421B0FBF1F26FF0630302FB0300322361
:1042300003EBC000B0FBF1F14FF4F87000EA41006D
:1042400000EB021001F0070115E09A009B0FFCF74C
:10425000ADF86421B0FBF1F26FF0630302FB0300E1
:10426000322303EB0010B0FBF1F101F0F00000EBA2
:10427000021001F00F01084321688860B0BD00BF43
:10428000001401402DE9F0411D4690460F460446BA
:104290005E1C206800683840B84227D0002EF8D055
:1042A0002DB1FEF75DFCA0EB0800A842F1D9206813
:1042B00050E8030F216820F4D07041E80302002A7F
:1042C000F5D1206850E8050F216820F0010041E891
:1042D0000502002AF5D12020002184F83D0084F851
:1042E0003C1084F83E000320BDE8F0810020BDE8CA
:1042F000F081FEE70000000080B5022A0BD0012A01
:1043000010D0CAB99FED100B9FED172BB0EE401ADD
:10431000F0EE601A0CE09FED0A0B9FED0B1B9FED7A
:104320000C2B05E09FED0C0B9FED0D1B9FED0E2B55
:1043300001F0CAF8002080BD4FF0FF3080BD00BF03
:10434000E17A14AE47E1DA3F000000000000E03FF0
:104350007B14AE47E17AB43F48E17A14AE47E13FBF
:10436000713D0AD7A370DD3F00000000000000008F
:1043700010B5074C00F00F032344044AB0F1FF3F8F
:10438000C8BF83180801187010BD00BF00E400E02A
:1043900014ED00E0E0B500220523CDE90032C54A66
:1043A000012304F0B7F98CBD2DE9F0478EB00F461C
:1043B000002116468146FFF7EDFF824600062FD109
:1043C000E846404600F030F828B377B108F10C0514
:1043D0000024BDF80E00844207D257F82420284656
:1043E000214603F097FE0134F3E776B108F10405A6
:1043F0000024BDF80600844207D256F8242028463F
:10440000214603F087FE0134F3E7D9F8000069463E
:1044100000F07AF820B9D9F8000004F0FFF98246DC
:1044200050460EB0BDE8F08780B1F8B50849D1E933
:104430000012CDE902120749D1E90012CDE90012BC
:10444000694602AA04F0ECF804B080BD0020704771
:1044500000A3000808A3000804F0E0B9F0B5A3B079
:104460000C46054604F0F2F80026DCB3D0B31F4832
:1044700003901F4802901F4801901F48009004F0CD
:10448000D9FA049004F0DEFA00264FF48471CDF8D6
:104490001E60ADF81C101949CDE90501ADF8226088
:1044A00004F0B4F8099004F02BF915496F460D9605
:1044B0000C910A9007F138004421FCF7A4F9114847
:1044C000CDE91F66ADF85060ADF848601190284600
:1044D000394603F0D5FF28B1694620468822FCF70B
:1044E00060F90126304623B0F0BD00BF788B030889
:1044F000AE8B03088D8B0308C78B0308D38B03088F
:10450000B0B80300DECAFAA12DE9F8430E46814691
:1045100004F092F900285FD0DFF85081054640464C
:104520000121324604F0B6F8002858D0D8F800101F
:104530004F48C0E90E11036B026843F080430363E8
:104540004C4B42F080421C6E1F69D3F820C044F0EF
:104550008044026001F512621C6601F12004C0E98A
:10456000022247F08042C3E91A441A6101F514623D
:104570004CF08044C3E906221C623F4A3F4C0A4487
:10458000276DC3E90A2202F58073C4E9163347F0A8
:1045900080432365276E02F58243C4E91A3347F04E
:1045A00080432366276A02F58443C4E90A3347F04F
:1045B00080432362236B02F5D042C4E90E2243F00C
:1045C000804222632E4A01271144026AC0E90A117F
:1045D00042F08041016208E00020BDE8F8832846EF
:1045E0003021122204F0FBF9002708F10400012118
:1045F000324604F039F858B3D8F8040021491C4A6F
:10460000C1E902002049C1E902002049C1E90200D4
:1046100000F5E061C2E90611164AC2E9161100F57B
:104620008061C2E91211C2E90E1100F52051C2E900
:104630000211124A00F58071C2E91211C2E9061195
:104640001349C1E902009830C2E90200012005E0E7
:1046500028463021132204F0C2F9002007EA0004A2
:10466000484604F06FF92040BDE8F883B40E0020FE
:10467000F400002084000020404902000C000020CB
:10468000D8B10200500C002068090020E809002081
:10469000680A002008B104F011B80648064A026012
:1046A00004F00CB808B104F0A0B90248024A026054
:1046B00004F09BB9900800200001C0A104F065B986
:1046C000F0B500238B4228BFF0BD02EB430632F861
:1046D0001340768824F0030426F003060559875911
:1046E0000233075185510444064465687768676062
:1046F0007560E7E72DE9F0410588984616460C46B7
:104700000746012A0BD1201D294641B190ED000A30
:104710000139B1EE400A80ED000A0830F5E7102DAE
:1047200014D0202D1ED0402D15D0802D0ED0B5F5E3
:10473000807F17D0B5F5007F0DD0B5F5805F0AD02A
:10474000B5F5006F0ED0B5F5806F0FD13846214614
:1047500000F030F80AE07A6820462946012300F08C
:10476000EFFA03E03846214600F0E8F8B8F1000F10
:1047700004D0BA68B9892046FFF7A2FF012E17D1ED
:1047800000EE105AB8EE400AB7EE001A81EE000AA9
:1047900075B194ED001A94ED012A20EE011A22EE73
:1047A000402A84ED001A84ED012A0834013DEFE728
:1047B000BDE8F0812DE9F84F2DED087B814600889A
:1047C000002401EB80024FEA500A01924FEA8A0E60
:1047D000D9F804200EEB800C4FEA800BC508002DA1
:1047E00000F09A8001EB040801EB0B03D3ED001AF3
:1047F000D8ED002A01EB0E0701EB0C0672EEA13A90
:1048000096ED012A96ED020A96ED031A97ED013A0C
:1048100097ED024A97ED035A93ED016A93ED027A00
:10482000D3ED030AD6ED004AD7ED005AC8ED003AA1
:10483000D8ED013AD8ED026AD8ED037A36EE879AC0
:1048400037EEA08A33EE86AA88ED01AA88ED029A97
:1048500088ED038A35EE018A34EE009A33EE02AA1F
:1048600087ED01AA87ED029A87ED038A35EEA48AC7
:10487000101987ED008A33EEC66AD0ED003A90ED4C
:10488000018A26EE239A72EEE11A26EE086A01EEFC
:10489000C89A01EEA36A32EE432A83ED019A83EDB2
:1048A000006A22EE083A34EEE56A06EE233A31EE6B
:1048B000451A30EE440A86ED013A26EE083A02EE39
:1048C000633A36EEC72A0EF1100E86ED003A90EDEF
:1048D000026A90ED037A37EEE03A63EE060A23EEC1
:1048E000073A42EE470A02EE063A21EE072A00EEA8
:1048F000062A20EE070A01EE460AC3ED030A83EDFD
:10490000023A86ED032A86ED020A0CF1100C0BF137
:10491000100B1034013D62E708465146022300F0B7
:104920000FFAD9F80420019851460223BDEC087B08
:1049300001B0BDE8F04F00F003BA00002DE9F84FD8
:104940002DED160B058891ED002A6A0801EB820611
:1049500006EB820393ED000A93ED011A91ED013A03
:1049600096ED005A96ED016A03EB820433EE014A9C
:10497000D4ED000AD4ED011A72EE002A32EE400A9C
:1049800033EE411A34EE067A72EE853A30EE062A9C
:1049900031EE453A37EE217A73EEA03A32EE612AD3
:1049A00033EE203AC1ED003A81ED017A86ED002A1E
:1049B00086ED013A32EEC52A34EE463A32EE602AEE
:1049C00033EE613A0E91029683ED002A049383ED53
:1049D000013A30EE460A31EE051A6FF0030330EE6D
:1049E000210A31EE601A03EB820103EBC20B6FF078
:1049F000070384ED000A039484ED011A03EB02140B
:104A00000F910D9402EB420403EB84096FF0010354
:104A10000590406803EB95034FEA530A0690A808F7
:104A20004FEAC20E9700A300002100250026019046
:104A30000E9ABAF1000F02EB0E0C02EB01009CED96
:104A4000020A90ED022A02EB070494ED025A02EBEF
:104A5000030832EE004AD8ED020A34EE057A37EE4A
:104A6000207A9CED031A90ED033A94ED036AD8ED99
:104A7000031A80ED027AD4ED032A33EE017AD8EDE1
:104A8000033A77EE222A72EEA32AC0ED032A73EED0
:104A9000412A72EE403A37EE462A32EE613A34EE5F
:104AA000452A32EEC54A069832EE851A33EEC60A1A
:104AB00034EE207A33EE864A31EE601A30EE210A67
:104AC00032EE602A34EE616A0C9600EB060200EBCF
:104AD0000506084400F0C480CDF82CE00A9709933D
:104AE0000791DDF838E00F9BCDF8209029467344FC
:104AF0000EEB0905DDF834900EEB0B07D5ED011A2E
:104B0000D3ED002ACE44D7ED004A72EEA13ADEED95
:104B1000016A73EEA45A75EEA65A9EED004A17ED8F
:104B2000015AD5ED000AC3ED005A53ED015A17EDB5
:104B3000018A75EEA07A9EED009A37EE888A38EEEB
:104B4000098A03ED018A90ED028A90ED03AA27EE0F
:104B5000089A27EE0A7A06EE087A06EE4A9A32EEAC
:104B6000E16A75EEE00A74EEE61A84ED027A36EE3A
:104B7000457A70EEA12A37EE047A62EE8A5A47EE41
:104B8000085A27EE0A7A02EEC87A84ED039A47EDB6
:104B9000015A87ED007A96ED047AD6ED055A63EE58
:104BA000072A23EE253A02EE073A42EE652A37EE4F
:104BB000C52A8CED023A33EEE43ACCED032A73EECB
:104BC000662A36EEC33A32EE442A62EEA52A27EE72
:104BD000033A42EE472A02EE653A4846C5ED002AFE
:104BE00085ED013A92ED062A92ED077A21EE023A1E
:104BF00021EE071A00EE021A00EE473A34EE450A9B
:104C000088ED021A31EEE01A88ED033A30EE460ADA
:104C100021EE073A00EE023A20EE070A01EE420AC0
:104C20000F9A8EED003A8EED010A0DF1240E083A2E
:104C300008380D4607999EE88840DDF820900F92CD
:104C40000D900C9EABF1080BA9F108090831103545
:104C5000183608330EF1080E0837AAF1010AE7E604
:104C600090ED024A90ED035A67EE040A46EE450ABB
:104C700027EE055A06EE045A019D0E9884ED025A5D
:104C8000C4ED030A96ED044A96ED055A23EE046A34
:104C900023EE053A02EE456A02EE043A174E294623
:104CA0008CED023A8CED036A92ED062A92ED073AFA
:104CB00021EE024A21EE031A00EE434A00EE021AE8
:104CC000069A042388ED021A88ED034AB047059C32
:104CD0000298626829460423B0476268049829460E
:104CE0000423B0476268039829460423B446BDEC08
:104CF000160B01B0BDE8F04F604700BF414D000802
:104D00006AB190ED011A90ED000A21EE011A00EE51
:104D1000001A0830013A81ED001A0431F0E77047BB
:104D200063B191ED000A90ED001A013B21EE000AFB
:104D300082ED000A043204310430F1E770470000CC
:104D40002DE9F84F2DED108BA0B0DFED05AA0190F5
:104D500004300D46CDE9033202900846189101E077
:104D6000F304353FEA08D400A4EBD5001101530148
:104D700002EB420C069202EB8202C0004FEACC0723
:104D8000D600029A1790E8001B934FEA0C134FF0DD
:104D9000000BCDE919711CA91F9461C10A931798E2
:104DA00002EB070E02EB00081E98D51802EB000973
:104DB0001F9818ED011A02EB000A1A981EED013A2D
:104DC00002EB000C1B9819ED016A10445AED010A20
:104DD00055ED014A5CED016A10ED019A12ED01BA40
:104DE00033EE015A70EE862A36EEA48A3BEE09DADB
:104DF00098ED002A9EED004A99ED007ADAED001A4E
:104E000072EE853A3DEE08EA3EEE23FA7EEE633A14
:104E1000D5ED005ADCED007A90ED00AA92ED00CAC3
:104E200002ED01FA40ED013A74EE023A31EE87EA02
:104E30003EEE63FA3DEE488A38EE0FDA0CED01DA09
:104E40007EEE233A37EEA5DA3CEE0AEA34EE422A49
:104E500031EEC74A33EE411A30EEC63A7EEE0D8A85
:104E600034EE027A33EE416A78EEA39A38EE4F8A36
:104E700078EEE33A27EE2A7A77EEE51A26EE2A6AEA
:104E80007BEE490AC2ED009A05ED018AC0ED003AB9
:104E900071EE873A70EE865A75EEA37A32EEC55AF5
:104EA0007EEE4D2A4AED017A72EEC57A75EEE33A4E
:104EB00035EE225ACCED007A48ED013A85ED005AE4
:104EC00031EEC75A30EEC66A33EE011A34EE422A8A
:104ED00036EE057A21EE2A1A36EEE43A22EE2A2A36
:104EE0003CEE4A4A09ED017A33EE017A74EE020A89
:104EF00070EEC71A36EE455ACAED001A0EED015A89
:104F000037EE205A88ED005ADDE91C05189BAB44AA
:104F10001F9C33EE411A34EE422A1E9E199F9B4578
:104F20000A9B32EE413A31EE021A024489ED003A10
:104F30008EED001AFFF433AF402DC0F0AE81039820
:104F4000DDF8049080B2059006980021C0EBC00007
:104F50004FEAC00E4FF001080598049D014405EB8F
:104F6000411090ED000A05EB01108DED170A90ED50
:104F7000000A05EBC1008DED160A90ED000AC1EBA9
:104F8000C10C05EBCC008DED150A90ED000A01EB8C
:104F9000410005EB00128DED140A92ED000A01EBC1
:104FA000810205EBC2038DED130A93ED000A05EBB8
:104FB000C0038DED120A93ED000A4B0104332B441C
:104FC0008DED110A93ED000A0B0104332B448DED96
:104FD000100A93ED000ACB00043309912B444FEAE9
:104FE000CC018DED0F0A93ED000A043129448DEDBB
:104FF0000E0A91ED000A0101043129448DED0D0ADC
:1050000091ED000AD100C000043104302944284445
:105010008DED0C0A91ED000AD0ED006A0A99CC469C
:1050200043468DED0B0ACDF81C90CDF820800CEB9B
:1050300004051A9C0CEB0E080CEB040A1B9C0CEBF1
:1050400007000CEB06020CEB01090CEB040BD8ED8E
:10505000027A98ED03BA90ED028A90ED03EA92EDA0
:10506000029AD2ED039A95ED02CAD5ED03BA99EDF5
:1050700002AAD9ED03EA9AED02DADAED03FA9BED22
:10508000021A9BED03FA9CED022ADCED038AF0EE96
:105090006A5A7EEE0BAA7BEEA9CA3FEEAE0A38EE44
:1050A0008F3A38EE276A3CEE097A7DEE0A1A72EEE4
:1050B000012A7CEEAADA33EE004A77EE060A72EE97
:1050C000A13A34EE2D5A73EEA04ACCED024A8CED93
:1050D000035A33EEE05ADDED173ADDED104A34EEB7
:1050E0006D4A63EE840A24EE844A03EE854A44EE58
:1050F000C50A32EEE15A37EE466A33EE400ADDED7C
:10510000161A8BED024A3CEEEA4A30EE463ADDEDE5
:105110000F2ACBED030A75EE040A21EE837A02EE24
:10512000E07A61EEA00A42EE830A35EE443A9DED44
:10513000135A36EE000A9DED0C6A25EE004A06EE83
:10514000434A25EE033A06EE003ACAED020A8AED1A
:10515000037A89ED023A3EEE4B0A3BEEE93A38EE2D
:10516000677A7CEE490A89ED034A33EE004A70EE15
:10517000C71A30EE877A33EE400A24EE254A3FEE16
:10518000EE5A61EEA51A32EE411A27EE257A7DEE2F
:105190004A0A20EE250A38EECF3AF0EE65AA35EE3F
:1051A000046A31EE212A70EE873A73EE004ADDED93
:1051B000155A9DED0E9A72EE062A74EEE37A32EEDF
:1051C000462A33EEA46ADDED143ADDED0D4A25EEF4
:1051D000A78A69EE277A09EE628A45EEA27A63EE23
:1051E000862A24EE866A03EE826A44EEC22A35EEEF
:1051F000442A30EEC75A33EE400A9DED127ADDEDB7
:105200000B0A31EE611A30EE453AC5ED027A85EDB2
:10521000038A88ED026A31EE024A27EE036A20EE25
:10522000833A07EE043AC8ED032A35EE000A82ED10
:10523000023A9DED113A31EE421A23EE002A26EE93
:10524000800A00EEC46A06EEC12A03EE010A82ED6E
:10525000036A1D9D80ED020A80ED032A1C981F9CA5
:10526000844418981E9E199F2B448342FFF4DFAE9E
:10527000DDF82080DDF81C90069808F101080999F6
:1052800009F108098045FFF467AE03983F2D069D9C
:105290004FEAC00003903FF665AD20B0BDEC108B27
:1052A00001B0BDE8F08F000080B14FF48061018251
:1052B0004FF40071084A01804FF4E0718181054983
:1052C0004261064AC0E90121002000E0FF2040B20F
:1052D000704700BF90D40008C0090408C0F9030853
:1052E00080B14FF4006101824FF48061084A01806F
:1052F0004FF4E161818105494261064AC0E901211B
:10530000002000E0FF2040B2704700BF28A3000843
:10531000C0190408408C030870B14FF480710182F9
:105320008021084A0180D021818105494261064AD5
:10533000C0E90121002000E0FF2040B2704700BF1B
:1053400038B10008C039040840AC030868B1202116
:1053500001821021074A01801421818104494261A0
:10536000054AC0E90121002000E0FF2040B270475B
:10537000D8B20008C03D040840B0030880B14FF423
:10538000805101824FF40061084A01804FF46E6140
:10539000818105494261064AC0E90121002000E0FF
:1053A000FF2040B2704700BF00B30008403E040831
:1053B000C0B0030880B14FF4007101824FF48071D6
:1053C000084A01804FF4DC71818105494261064A37
:1053D000C0E90121002000E0FF2040B2704700BF7B
:1053E000C0D00008407E0408C0F0030868B1402126
:1053F00001822021074A01803021818104494261D4
:10540000054AC0E90121002000E0FF2040B27047BA
:1054100030D4000840860408C0F80308F8B50546F3
:10542000008A14460E464008288073B1284631464B
:1054300022461F4600F0B4FB284621463A46012387
:1054400001B0BDE8F040FFF755B9284631460022CB
:105450000123FFF74FF9284631462246BDE8F840C0
:1054600000F0CCBC202915D0402915D0B1F5807FA3
:1054700014D0B1F5007F13D0B1F5806F12D0B1F523
:10548000805F11D0B1F5006F1CBF4FF0FF30704747
:105490000C4908470649084706490847064908478E
:1054A0000649084706490847004908477D53000850
:1054B0004D530008ED53000819530008B553000878
:1054C000A9520008E15200082DE9F84F2DED103BDC
:1054D000B0EE428AB0EE419AB0EE40AA05460846C8
:1054E000F0EE628AF0EE619AF0EE60AA099104F0A3
:1054F00031FA9FED2F0B06460F4651EC100BCDE90C
:10550000071051EC190B9FED2C0BCDE9051051EC58
:105510001A0B0024CDE9031051EC100BCDE901105A
:105520000998A0423DD0204604F014FADDE9073284
:1055300081468A4604F022FA32463B4604F06CF873
:1055400041EC100B01F048F9DDE9053251EC100B8C
:1055500004F014FA02460B46DDE9031004F0E4FB04
:10556000DDE9013280468B464846514604F006FA92
:1055700032463B4604F050F841EC100B01F02CF998
:1055800051EC100B53EC182B04F0F8F902460B46C3
:105590004046594603F098FF03F064FF01C501340B
:1055A000BEE7BDEC103B01B0BDE8F08F00BF00BF0F
:1055B000182D4454FB211940182D4454FB21294037
:1055C00010B51D481B4C04C800216170A26000EE9C
:1055D000102A0122262A0FD090ED001AB4EEC01A2C
:1055E000F1EE10FA05DDD1B2B0EE410A627084ED41
:1055F000021A04300132EDE71D2918BF10BD0F4813
:105600004FF40051FDF79EFA0120012100F05EF8F1
:10561000A06804F073FC024609480B4600F14C04F4
:1056200008A12046FAF746FF2046BDE8104000F0EA
:1056300091B800BFBC0D002070430120001802404B
:10564000340E002061636375726163793A20252E00
:105650003266000010B5802000F044F8462424B1E2
:10566000202000F05BF8013CF9E710BDB0B5154C07
:105670003220A047144D3020A8470520A0473020F5
:10568000A8470120A0473020A8470A20A047202093
:10569000A8470A20A0472820A8470120A0470820A3
:1056A000A8470120A0470120A8470120A0470120CA
:1056B000A0470620A8470120A0470C202946BDE8A6
:1056C000B040084775290008E5560008012803D0B6
:1056D00020B941F0800101E041F0C001C8B200F002
:1056E00001B80000E0B5010101F108020C3100F041
:1056F000F0008DF807208DF8061000F108010C303D
:105700008DF805108DF8040064200090F34801AA7C
:105710007E210423FDF724FB8CBD00BFE0B5010111
:1057200001F109020D3100F0F0008DF807208DF82D
:10573000061000F109010D308DF805108DF80400F8
:1057400064200090E54801AA7E210423FDF708FBB0
:105750008CBD00BF10B50446207818B1FFF7DEFFFE
:105760000134F9E710BD00002DE9F04FA7B0002784
:105770000197FDF705FCFEF741FCD44ECDE9057716
:10578000249730684FF4C04140F001003060306829
:10579000002200F0010024902498249730684FF4F0
:1057A000C04940F040003060306800F04000249074
:1057B00024982497306840F002003060306800F090
:1057C000020024902498C24800F5E2348246204624
:1057D000FDF7C0F94FF00108302002ADCDE90378A4
:1057E00002900AF5D6302946FDF7D6F8204629461C
:1057F000CDE90477CDE90298FDF7CEF8029730683D
:10580000002140F4800030603068002200F4800005
:105810000290029838205646FDF714FC3820FDF718
:1058200003FCAC48AC4B4FF440310AF54C42C76224
:1058300080F8207080F81880836280F83080C0F88B
:105840001C80C0E90021C0E90277C0E90478CDE9F5
:105850000477CDE90277FCF759FD002840F0338149
:10586000072004909B4802A9CDE90278FCF728FCA8
:10587000002840F028819948994B00214FF480423C
:10588000C0E90063C0E90211C0E90421C0E90611C2
:105890000162FDF7A9F9002840F015818F48002129
:1058A000FDF764F9002840F00E818C4800210024A7
:1058B000FDF77AF9002840F006818A484FF6FF711B
:1058C0007A2206F52C43C0E90032C0E90241C0E962
:1058D00004448461CDE90444CDE90244CDE9244483
:1058E000FDF798FE002840F0EE804FF480500290C3
:1058F0007C4802A9FDF70CFF002840F0E480794CB9
:10590000002524A92046CDE92455FDF749FE0028AD
:1059100040F0D98074480C214FF4E13206F53C4345
:10592000C0E90032C0E90255C0E90451C0E906559A
:10593000FDF769FF002840F0C680DFF8B08106F56A
:10594000EE31404640F8241FFCF778FE002840F076
:10595000BA80FFF78BFEFFF77DFE00200321FFF7E3
:10596000B5FE63A0FFF7F6FE00F0C0F959486349A1
:105970004FF47852FCF7C2FD614824A9249001A895
:105980000022FEF711FD000601D05EA08BE0019819
:1059900002A9FEF763FD002800F0848002996548A3
:1059A000654DA847039965A0A847DDE91101C8E93D
:1059B00003018069D0E90132C16866A0A847D8F820
:1059C00010008069D0E90132C16869A0A847019838
:1059D0000021FEF75FFEC8F80C0001980021FEF7D9
:1059E00061FEC8F81000D8F80C10BD4ADFF89C9191
:1059F0004A60C0F804902046FDF74EFEF748DFF8F5
:105A000098A1DFF898B13D4E324F00F14C0598F85F
:105A100000000128FBD100F00BF92068406AC8F8AB
:105A20000400D8E903120198FEF748FE012841D18D
:105A3000D9F80000D9F87410C8E905012168D8F830
:105A40000400496A0A1A53492846FAF733FD2846E2
:105A5000FAF788FE82B2244829466423FDF738FF0E
:105A60002168D8F80400496A091A5046FAF716FD69
:105A7000D8F8140004F042FA024658460B46FAF7EA
:105A80000DFDFFF79DFD30464FF4F841FAF7BBFEE0
:105A9000002088F80000384631464FF47852FCF771
:105AA0002DFDB4E71EA0FAF71BFE4FF0FF3027B024
:105AB000BDE8F08F0198FEF7CFFCC1B2020A34486E
:105AC000FAF7ECFCF1E7FCF7F5FA00BF30380240DA
:105AD00000540040180001200100000FC000012008
